{
  "address": "0xCd1576c87730FEE588C85B4a7e5cc114d74cfaf2",
  "abi": [
    {
      "anonymous": false,
      "inputs": [
        {
          "indexed": true,
          "internalType": "address",
          "name": "tokenAddress",
          "type": "address"
        },
        {
          "indexed": true,
          "internalType": "address",
          "name": "owner",
          "type": "address"
        },
        {
          "indexed": false,
          "internalType": "string",
          "name": "name",
          "type": "string"
        },
        {
          "indexed": false,
          "internalType": "string",
          "name": "symbol",
          "type": "string"
        },
        {
          "indexed": false,
          "internalType": "uint256",
          "name": "initialSupply",
          "type": "uint256"
        }
      ],
      "name": "TokenCreated",
      "type": "event"
    },
    {
      "inputs": [
        {
          "internalType": "string",
          "name": "name",
          "type": "string"
        },
        {
          "internalType": "string",
          "name": "symbol",
          "type": "string"
        },
        {
          "internalType": "uint256",
          "name": "initialSupply",
          "type": "uint256"
        }
      ],
      "name": "createToken",
      "outputs": [
        {
          "internalType": "address",
          "name": "",
          "type": "address"
        }
      ],
      "stateMutability": "nonpayable",
      "type": "function"
    }
  ],
  "transactionHash": "0xce75d78cf32322f2361bf37d54f097acf831cf2fa4e6a248bea801f174a60f33",
  "args": [],
  "numDeployments": 1,
  "solcInputHash": "a99723418ec1b996c56f146f0f8ddc9a",
  "bytecode": "0x608060405234801561001057600080fd5b5061128b806100206000396000f3fe608060405234801561001057600080fd5b506004361061002b5760003560e01c80635b06053014610030575b600080fd5b61004361003e3660046101a5565b61005f565b6040516001600160a01b03909116815260200160405180910390f35b60008084848433604051610072906100f5565b61007f9493929190610258565b604051809103906000f08015801561009b573d6000803e3d6000fd5b509050336001600160a01b0316816001600160a01b03167f6e6ae68e7d7d45fbd855c40d1eaafa8de46c5fbec3ee26f1af88730e400bc92c8787876040516100e59392919061029f565b60405180910390a3949350505050565b610f80806102d683390190565b634e487b7160e01b600052604160045260246000fd5b600082601f83011261012957600080fd5b813567ffffffffffffffff8082111561014457610144610102565b604051601f8301601f19908116603f0116810190828211818310171561016c5761016c610102565b8160405283815286602085880101111561018557600080fd5b836020870160208301376000602085830101528094505050505092915050565b6000806000606084860312156101ba57600080fd5b833567ffffffffffffffff808211156101d257600080fd5b6101de87838801610118565b945060208601359150808211156101f457600080fd5b5061020186828701610118565b925050604084013590509250925092565b6000815180845260005b818110156102385760208185018101518683018201520161021c565b506000602082860101526020601f19601f83011685010191505092915050565b60808152600061026b6080830187610212565b828103602084015261027d8187610212565b604084019590955250506001600160a01b039190911660609091015292915050565b6060815260006102b26060830186610212565b82810360208401526102c48186610212565b91505082604083015294935050505056fe60806040523480156200001157600080fd5b5060405162000f8038038062000f80833981016040819052620000349162000355565b8383600362000044838262000478565b50600462000053828262000478565b505050620000706200006a6200009160201b60201c565b62000095565b6200007c8183620000e7565b6200008781620001ae565b505050506200056c565b3390565b600580546001600160a01b038381166001600160a01b0319831681179093556040519116919082907f8be0079c531659141344cd1fd0a4f28419497f9722a3daafe3b4186f6b6457e090600090a35050565b6001600160a01b038216620001435760405162461bcd60e51b815260206004820152601f60248201527f45524332303a206d696e7420746f20746865207a65726f20616464726573730060448201526064015b60405180910390fd5b806002600082825462000157919062000544565b90915550506001600160a01b038216600081815260208181526040808320805486019055518481527fddf252ad1be2c89b69c2b068fc378daa952ba7f163c4a11628f55a4df523b3ef910160405180910390a35050565b620001b862000232565b6001600160a01b0381166200021f5760405162461bcd60e51b815260206004820152602660248201527f4f776e61626c653a206e6577206f776e657220697320746865207a65726f206160448201526564647265737360d01b60648201526084016200013a565b6200022a8162000095565b50565b505050565b6005546001600160a01b031633146200028e5760405162461bcd60e51b815260206004820181905260248201527f4f776e61626c653a2063616c6c6572206973206e6f7420746865206f776e657260448201526064016200013a565b565b634e487b7160e01b600052604160045260246000fd5b600082601f830112620002b857600080fd5b81516001600160401b0380821115620002d557620002d562000290565b604051601f8301601f19908116603f0116810190828211818310171562000300576200030062000290565b816040528381526020925086838588010111156200031d57600080fd5b600091505b8382101562000341578582018301518183018401529082019062000322565b600093810190920192909252949350505050565b600080600080608085870312156200036c57600080fd5b84516001600160401b03808211156200038457600080fd5b6200039288838901620002a6565b95506020870151915080821115620003a957600080fd5b50620003b887828801620002a6565b60408701516060880151919550935090506001600160a01b0381168114620003df57600080fd5b939692955090935050565b600181811c90821680620003ff57607f821691505b6020821081036200042057634e487b7160e01b600052602260045260246000fd5b50919050565b601f8211156200022d57600081815260208120601f850160051c810160208610156200044f5750805b601f850160051c820191505b8181101562000470578281556001016200045b565b505050505050565b81516001600160401b0381111562000494576200049462000290565b620004ac81620004a58454620003ea565b8462000426565b602080601f831160018114620004e45760008415620004cb5750858301515b600019600386901b1c1916600185901b17855562000470565b600085815260208120601f198616915b828110156200051557888601518255948401946001909101908401620004f4565b5085821015620005345787850151600019600388901b60f8161c191681555b5050505050600190811b01905550565b808201808211156200056657634e487b7160e01b600052601160045260246000fd5b92915050565b610a04806200057c6000396000f3fe608060405234801561001057600080fd5b50600436106100ea5760003560e01c8063715018a61161008c578063a457c2d711610066578063a457c2d7146101cd578063a9059cbb146101e0578063dd62ed3e146101f3578063f2fde38b1461020657600080fd5b8063715018a6146101a05780638da5cb5b146101aa57806395d89b41146101c557600080fd5b806323b872dd116100c857806323b872dd14610142578063313ce56714610155578063395093511461016457806370a082311461017757600080fd5b806306fdde03146100ef578063095ea7b31461010d57806318160ddd14610130575b600080fd5b6100f7610219565b604051610104919061084e565b60405180910390f35b61012061011b3660046108b8565b6102ab565b6040519015158152602001610104565b6002545b604051908152602001610104565b6101206101503660046108e2565b6102c5565b60405160128152602001610104565b6101206101723660046108b8565b6102e9565b61013461018536600461091e565b6001600160a01b031660009081526020819052604090205490565b6101a861030b565b005b6005546040516001600160a01b039091168152602001610104565b6100f761031f565b6101206101db3660046108b8565b61032e565b6101206101ee3660046108b8565b6103ae565b610134610201366004610940565b6103bc565b6101a861021436600461091e565b6103e7565b60606003805461022890610973565b80601f016020809104026020016040519081016040528092919081815260200182805461025490610973565b80156102a15780601f10610276576101008083540402835291602001916102a1565b820191906000526020600020905b81548152906001019060200180831161028457829003601f168201915b5050505050905090565b6000336102b9818585610460565b60019150505b92915050565b6000336102d3858285610584565b6102de8585856105fe565b506001949350505050565b6000336102b98185856102fc83836103bc565b61030691906109ad565b610460565b6103136107a2565b61031d60006107fc565b565b60606004805461022890610973565b6000338161033c82866103bc565b9050838110156103a15760405162461bcd60e51b815260206004820152602560248201527f45524332303a2064656372656173656420616c6c6f77616e63652062656c6f77604482015264207a65726f60d81b60648201526084015b60405180910390fd5b6102de8286868403610460565b6000336102b98185856105fe565b6001600160a01b03918216600090815260016020908152604080832093909416825291909152205490565b6103ef6107a2565b6001600160a01b0381166104545760405162461bcd60e51b815260206004820152602660248201527f4f776e61626c653a206e6577206f776e657220697320746865207a65726f206160448201526564647265737360d01b6064820152608401610398565b61045d816107fc565b50565b6001600160a01b0383166104c25760405162461bcd60e51b8152602060048201526024808201527f45524332303a20617070726f76652066726f6d20746865207a65726f206164646044820152637265737360e01b6064820152608401610398565b6001600160a01b0382166105235760405162461bcd60e51b815260206004820152602260248201527f45524332303a20617070726f766520746f20746865207a65726f206164647265604482015261737360f01b6064820152608401610398565b6001600160a01b0383811660008181526001602090815260408083209487168084529482529182902085905590518481527f8c5be1e5ebec7d5bd14f71427d1e84f3dd0314c0f7b2291e5b200ac8c7c3b925910160405180910390a3505050565b600061059084846103bc565b905060001981146105f857818110156105eb5760405162461bcd60e51b815260206004820152601d60248201527f45524332303a20696e73756666696369656e7420616c6c6f77616e63650000006044820152606401610398565b6105f88484848403610460565b50505050565b6001600160a01b0383166106625760405162461bcd60e51b815260206004820152602560248201527f45524332303a207472616e736665722066726f6d20746865207a65726f206164604482015264647265737360d81b6064820152608401610398565b6001600160a01b0382166106c45760405162461bcd60e51b815260206004820152602360248201527f45524332303a207472616e7366657220746f20746865207a65726f206164647260448201526265737360e81b6064820152608401610398565b6001600160a01b0383166000908152602081905260409020548181101561073c5760405162461bcd60e51b815260206004820152602660248201527f45524332303a207472616e7366657220616d6f756e7420657863656564732062604482015265616c616e636560d01b6064820152608401610398565b6001600160a01b03848116600081815260208181526040808320878703905593871680835291849020805487019055925185815290927fddf252ad1be2c89b69c2b068fc378daa952ba7f163c4a11628f55a4df523b3ef910160405180910390a36105f8565b6005546001600160a01b0316331461031d5760405162461bcd60e51b815260206004820181905260248201527f4f776e61626c653a2063616c6c6572206973206e6f7420746865206f776e65726044820152606401610398565b600580546001600160a01b038381166001600160a01b0319831681179093556040519116919082907f8be0079c531659141344cd1fd0a4f28419497f9722a3daafe3b4186f6b6457e090600090a35050565b600060208083528351808285015260005b8181101561087b5785810183015185820160400152820161085f565b506000604082860101526040601f19601f8301168501019250505092915050565b80356001600160a01b03811681146108b357600080fd5b919050565b600080604083850312156108cb57600080fd5b6108d48361089c565b946020939093013593505050565b6000806000606084860312156108f757600080fd5b6109008461089c565b925061090e6020850161089c565b9150604084013590509250925092565b60006020828403121561093057600080fd5b6109398261089c565b9392505050565b6000806040838503121561095357600080fd5b61095c8361089c565b915061096a6020840161089c565b90509250929050565b600181811c9082168061098757607f821691505b6020821081036109a757634e487b7160e01b600052602260045260246000fd5b50919050565b808201808211156102bf57634e487b7160e01b600052601160045260246000fdfea264697066735822122085e93a18e91799e99a5f88f68e9054e326e52d4eebe5eff27999247a4939e8c764736f6c63430008110033a26469706673582212206d9069c24ae3b203cc38f5c5ef2417551155c8e41a4e4ea3774717f7ae25437a64736f6c63430008110033",
  "devdoc": {
    "kind": "dev",
    "methods": {},
    "version": 1
  },
  "userdoc": {
    "kind": "user",
    "methods": {},
    "version": 1
  },
  "storageLayout": {
    "storage": [],
    "types": null
  }
}