{
  "address": "0x20CD12977E8254eE116D4320B4F4b2422162aF4F",
  "abi": [
    {
      "inputs": [],
      "stateMutability": "nonpayable",
      "type": "constructor"
    },
    {
      "anonymous": false,
      "inputs": [
        {
          "indexed": true,
          "internalType": "address",
          "name": "tokenA",
          "type": "address"
        },
        {
          "indexed": true,
          "internalType": "address",
          "name": "tokenB",
          "type": "address"
        },
        {
          "indexed": false,
          "internalType": "uint24",
          "name": "fee",
          "type": "uint24"
        },
        {
          "indexed": false,
          "internalType": "address",
          "name": "pool",
          "type": "address"
        }
      ],
      "name": "PoolCreated",
      "type": "event"
    },
    {
      "inputs": [
        {
          "internalType": "address",
          "name": "tokenA",
          "type": "address"
        },
        {
          "internalType": "address",
          "name": "tokenB",
          "type": "address"
        },
        {
          "internalType": "uint24",
          "name": "fee",
          "type": "uint24"
        }
      ],
      "name": "deployPool",
      "outputs": [
        {
          "internalType": "address",
          "name": "pool",
          "type": "address"
        }
      ],
      "stateMutability": "nonpayable",
      "type": "function"
    },
    {
      "inputs": [],
      "name": "factory",
      "outputs": [
        {
          "internalType": "address",
          "name": "",
          "type": "address"
        }
      ],
      "stateMutability": "view",
      "type": "function"
    },
    {
      "inputs": [
        {
          "internalType": "address",
          "name": "_factory",
          "type": "address"
        }
      ],
      "name": "setFactory",
      "outputs": [],
      "stateMutability": "nonpayable",
      "type": "function"
    }
  ],
  "transactionHash": "0x973f7209a98a7e5b580fdf663064f860c8c31eef95b3937b9f0ad0c2a7254dd7",
  "args": [],
  "numDeployments": 1,
  "solcInputHash": "a99723418ec1b996c56f146f0f8ddc9a",
  "bytecode": "0x6080604052600080546001600160a01b031916731f98431c8ad98523631ae4a59f267346ea31f98417905534801561003657600080fd5b5061037a806100466000396000f3fe608060405234801561001057600080fd5b50600436106100415760003560e01c80635bb47808146100465780639a5379ea14610078578063c45a0155146100a7575b600080fd5b6100766100543660046102b0565b600080546001600160a01b0319166001600160a01b0392909216919091179055565b005b61008b6100863660046102d4565b6100ba565b6040516001600160a01b03909116815260200160405180910390f35b60005461008b906001600160a01b031681565b6000826001600160a01b0316846001600160a01b0316036101225760405162461bcd60e51b815260206004820152601e60248201527f556e697377617056333a204944454e544943414c5f414444524553534553000060448201526064015b60405180910390fd5b6001600160a01b0384161580159061014257506001600160a01b03831615155b61018e5760405162461bcd60e51b815260206004820152601760248201527f556e697377617056333a205a45524f5f414444524553530000000000000000006044820152606401610119565b600080846001600160a01b0316866001600160a01b0316106101b15784866101b4565b85855b60005460405163a167129560e01b81526001600160a01b038085166004830152808416602483015262ffffff89166044830152939550919350919091169063a1671295906064016020604051808303816000875af115801561021a573d6000803e3d6000fd5b505050506040513d601f19601f8201168201806040525081019061023e9190610327565b6040805162ffffff871681526001600160a01b038084166020830152929550828416928516917f97d23878912fda7f82bd5a8502f2c6e9086f5a4728f9054627788b3162f86ced910160405180910390a350509392505050565b6001600160a01b03811681146102ad57600080fd5b50565b6000602082840312156102c257600080fd5b81356102cd81610298565b9392505050565b6000806000606084860312156102e957600080fd5b83356102f481610298565b9250602084013561030481610298565b9150604084013562ffffff8116811461031c57600080fd5b809150509250925092565b60006020828403121561033957600080fd5b81516102cd8161029856fea2646970667358221220fd9ec0446d8c3961693f66975cc7980ad477ff51b8533c9772300e193478aaa664736f6c63430008110033",
  "devdoc": {
    "kind": "dev",
    "methods": {},
    "version": 1
  },
  "userdoc": {
    "kind": "user",
    "methods": {},
    "version": 1
  },
  "storageLayout": {
    "storage": [
      {
        "astId": 930,
        "contract": "contracts/PoolCreator.sol:PoolCreator",
        "label": "factory",
        "offset": 0,
        "slot": "0",
        "type": "t_address"
      }
    ],
    "types": {
      "t_address": {
        "encoding": "inplace",
        "label": "address",
        "numberOfBytes": "20"
      }
    }
  }
}