{
  "address": "0xAEF9024367Ed29e606dE713845f93A82882a84Ef",
  "abi": [
    {
      "inputs": [],
      "name": "hello",
      "outputs": [
        {
          "internalType": "string",
          "name": "",
          "type": "string"
        }
      ],
      "stateMutability": "pure",
      "type": "function"
    },
    {
      "inputs": [
        {
          "internalType": "contract IERC20[]",
          "name": "tokens",
          "type": "address[]"
        },
        {
          "internalType": "uint256[]",
          "name": "amounts",
          "type": "uint256[]"
        },
        {
          "internalType": "bytes",
          "name": "userData",
          "type": "bytes"
        }
      ],
      "name": "makeFlashLoan",
      "outputs": [],
      "stateMutability": "nonpayable",
      "type": "function"
    },
    {
      "inputs": [],
      "name": "owner",
      "outputs": [
        {
          "internalType": "address",
          "name": "",
          "type": "address"
        }
      ],
      "stateMutability": "view",
      "type": "function"
    },
    {
      "inputs": [
        {
          "internalType": "address",
          "name": "_tokenIn",
          "type": "address"
        },
        {
          "internalType": "uint256",
          "name": "_amountIn",
          "type": "uint256"
        },
        {
          "internalType": "address",
          "name": "_tokenOut",
          "type": "address"
        },
        {
          "internalType": "uint256",
          "name": "_amountOutMin",
          "type": "uint256"
        }
      ],
      "name": "pancakeswapTokens",
      "outputs": [
        {
          "internalType": "uint256",
          "name": "",
          "type": "uint256"
        }
      ],
      "stateMutability": "nonpayable",
      "type": "function"
    },
    {
      "inputs": [
        {
          "internalType": "contract IERC20[]",
          "name": "tokens",
          "type": "address[]"
        },
        {
          "internalType": "uint256[]",
          "name": "amounts",
          "type": "uint256[]"
        },
        {
          "internalType": "uint256[]",
          "name": "feeAmounts",
          "type": "uint256[]"
        },
        {
          "internalType": "bytes",
          "name": "userData",
          "type": "bytes"
        }
      ],
      "name": "receiveFlashLoan",
      "outputs": [],
      "stateMutability": "nonpayable",
      "type": "function"
    },
    {
      "inputs": [
        {
          "internalType": "address",
          "name": "_tokenIn",
          "type": "address"
        },
        {
          "internalType": "uint256",
          "name": "_amountIn",
          "type": "uint256"
        },
        {
          "internalType": "address",
          "name": "_tokenOut",
          "type": "address"
        },
        {
          "internalType": "uint256",
          "name": "_amountOutMin",
          "type": "uint256"
        }
      ],
      "name": "sushiswapTokens",
      "outputs": [
        {
          "internalType": "uint256",
          "name": "",
          "type": "uint256"
        }
      ],
      "stateMutability": "nonpayable",
      "type": "function"
    },
    {
      "inputs": [
        {
          "internalType": "bytes",
          "name": "userData",
          "type": "bytes"
        }
      ],
      "name": "swap",
      "outputs": [],
      "stateMutability": "nonpayable",
      "type": "function"
    },
    {
      "inputs": [
        {
          "internalType": "address",
          "name": "_tokenIn",
          "type": "address"
        },
        {
          "internalType": "uint256",
          "name": "_amountIn",
          "type": "uint256"
        },
        {
          "internalType": "address",
          "name": "_tokenOut",
          "type": "address"
        },
        {
          "internalType": "uint256",
          "name": "_amountOutMin",
          "type": "uint256"
        }
      ],
      "name": "uniswapTokens",
      "outputs": [
        {
          "internalType": "uint256",
          "name": "",
          "type": "uint256"
        }
      ],
      "stateMutability": "nonpayable",
      "type": "function"
    }
  ],
  "transactionHash": "0xffb8784d3d885be7a5908714b338e231e41920cb4552c5bffde112dd5d6dc43c",
  "args": [],
  "numDeployments": 6,
  "solcInputHash": "b7fa5afac00120748b206dc5daf8751d",
  "bytecode": "0x6080604052600080546001600160a01b0319163317905534801561002257600080fd5b506114ae806100326000396000f3fe608060405234801561001057600080fd5b50600436106100885760003560e01c80638da5cb5b1161005b5780638da5cb5b146100f4578063c9a695621461011f578063eee45b2514610132578063f04f27071461014557600080fd5b806319ff1d211461008d5780634352a576146100ab578063551905cd146100cc578063627dd56a146100df575b600080fd5b610095610158565b6040516100a29190610d6d565b60405180910390f35b6100be6100b9366004610d9f565b610178565b6040519081526020016100a2565b6100be6100da366004610d9f565b610334565b6100f26100ed366004610e9e565b610480565b005b600054610107906001600160a01b031681565b6040516001600160a01b0390911681526020016100a2565b6100f261012d366004610fce565b610a2e565b6100be610140366004610d9f565b610aa2565b6100f2610153366004611056565b610bee565b60606040518060600160405280603d815260200161143c603d9139905090565b60405163095ea7b360e01b8152734752ba5dbc23f44d87826276bf6fd6b1c372ad246004820152602481018490526000906001600160a01b0386169063095ea7b3906044016020604051808303816000875af11580156101dc573d6000803e3d6000fd5b505050506040513d601f19601f820116820180604052508101906102009190611103565b50604080516002808252606082018352600092602083019080368337019050509050858160008151811061023657610236611125565b60200260200101906001600160a01b031690816001600160a01b031681525050838160018151811061026a5761026a611125565b6001600160a01b03909216602092830291909101909101526040516338ed173960e01b8152600090734752ba5dbc23f44d87826276bf6fd6b1c372ad24906338ed1739906102c4908990889087903090429060040161113b565b6000604051808303816000875af11580156102e3573d6000803e3d6000fd5b505050506040513d6000823e601f3d908101601f1916820160405261030b91908101906111ac565b90508060018151811061032057610320611125565b602002602001015192505050949350505050565b60405163095ea7b360e01b8152736bded42c6da8fbf0d2ba55b2fa120c5e0c8d78916004820152602481018490526000906001600160a01b0386169063095ea7b3906044016020604051808303816000875af1158015610398573d6000803e3d6000fd5b505050506040513d601f19601f820116820180604052508101906103bc9190611103565b5060408051600280825260608201835260009260208301908036833701905050905085816000815181106103f2576103f2611125565b60200260200101906001600160a01b031690816001600160a01b031681525050838160018151811061042657610426611125565b6001600160a01b03909216602092830291909101909101526040516338ed173960e01b8152600090736bded42c6da8fbf0d2ba55b2fa120c5e0c8d7891906338ed1739906102c4908990889087903090429060040161113b565b60006016820151905060008260168151811061049e5761049e611125565b602001015160f81c60f81b60f81c90506000836017815181106104c3576104c3611125565b016020015160f81c9050600060ff831667ffffffffffffffff8111156104eb576104eb610de7565b6040519080825280601f01601f191660200182016040528015610515576020820181803683370190505b50905060008260ff1667ffffffffffffffff81111561053657610536610de7565b6040519080825280601f01601f191660200182016040528015610560576020820181803683370190505b5090506000808560ff168560ff16895161057a9190611253565b6105849190611253565b90505b8460ff1688516105979190611253565b811015610604578781815181106105b0576105b0611125565b602001015160f81c60f81b8483815181106105cd576105cd611125565b60200101906001600160f81b031916908160001a905350816105ee8161126c565b92505080806105fc9061126c565b915050610587565b506000805b84518110156106815761061d816001611285565b85516106299190611253565b610634906008611298565b61063f906002611393565b85828151811061065157610651611125565b0160200151610663919060f81c611298565b61066d9083611285565b9150806106798161126c565b915050610609565b506000808660ff168a516106959190611253565b90505b8951811015610707578981815181106106b3576106b3611125565b602001015160f81c60f81b8583815181106106d0576106d0611125565b60200101906001600160f81b031916908160001a905350816106f18161126c565b92505080806106ff9061126c565b915050610698565b506000805b855181101561078457610720816001611285565b865161072c9190611253565b610737906008611298565b610742906002611393565b86828151811061075457610754611125565b0160200151610766919060f81c611298565b6107709083611285565b91508061077c8161126c565b91505061070c565b508960008151811061079857610798611125565b01602001516001600160f81b031916600160f81b0361087957896001815181106107c4576107c4611125565b01602001516001600160f81b031916600160f91b036108165760006107fa6006602160991b01670de0b6b3a76400008c87610178565b905061080f8a826006602160991b0185610334565b5050610a22565b8960018151811061082957610829611125565b01602001516001600160f81b031916600360f81b0361087457600061085f6006602160991b01670de0b6b3a76400008c87610178565b905061080f8a826006602160991b0185610aa2565b610a22565b8960008151811061088c5761088c611125565b01602001516001600160f81b031916600160f91b0361094c57896001815181106108b8576108b8611125565b01602001516001600160f81b031916600160f81b036109035760006108ee6006602160991b01670de0b6b3a76400008c87610334565b905061080f8a826006602160991b0185610178565b8960018151811061091657610916611125565b01602001516001600160f81b031916600360f81b0361087457600061085f6006602160991b01670de0b6b3a76400008c87610334565b8960008151811061095f5761095f611125565b01602001516001600160f81b031916600360f81b03610a22578960018151811061098b5761098b611125565b01602001516001600160f81b031916600160f81b036109c15760006108ee6006602160991b01670de0b6b3a76400008c87610aa2565b896001815181106109d4576109d4611125565b01602001516001600160f81b031916600160f91b03610a22576000610a0a6006602160991b01670de0b6b3a76400008c87610aa2565b9050610a1f8a826006602160991b0185610334565b50505b50505050505050505050565b604051632e1c224f60e11b815273ba12222222228d8ba445958a75a0704d566bf2c890635c38449e90610a6b90309087908790879060040161139f565b600060405180830381600087803b158015610a8557600080fd5b505af1158015610a99573d6000803e3d6000fd5b50505050505050565b60405163095ea7b360e01b8152738cfe327cec66d1c090dd72bd0ff11d690c33a2eb6004820152602481018490526000906001600160a01b0386169063095ea7b3906044016020604051808303816000875af1158015610b06573d6000803e3d6000fd5b505050506040513d601f19601f82011682018060405250810190610b2a9190611103565b506040805160028082526060820183526000926020830190803683370190505090508581600081518110610b6057610b60611125565b60200260200101906001600160a01b031690816001600160a01b0316815250508381600181518110610b9457610b94611125565b6001600160a01b03909216602092830291909101909101526040516338ed173960e01b8152600090738cfe327cec66d1c090dd72bd0ff11d690c33a2eb906338ed1739906102c4908990889087903090429060040161113b565b3373ba12222222228d8ba445958a75a0704d566bf2c814610c0e57600080fd5b610c1781610480565b60005b8451811015610d2057848181518110610c3557610c35611125565b60200260200101516001600160a01b031663a9059cbb73ba12222222228d8ba445958a75a0704d566bf2c8858481518110610c7257610c72611125565b6020026020010151878581518110610c8c57610c8c611125565b6020026020010151610c9e9190611285565b6040516001600160e01b031960e085901b1681526001600160a01b03909216600483015260248201526044016020604051808303816000875af1158015610ce9573d6000803e3d6000fd5b505050506040513d601f19601f82011682018060405250810190610d0d9190611103565b5080610d188161126c565b915050610c1a565b5050505050565b6000815180845260005b81811015610d4d57602081850181015186830182015201610d31565b506000602082860101526020601f19601f83011685010191505092915050565b602081526000610d806020830184610d27565b9392505050565b6001600160a01b0381168114610d9c57600080fd5b50565b60008060008060808587031215610db557600080fd5b8435610dc081610d87565b9350602085013592506040850135610dd781610d87565b9396929550929360600135925050565b634e487b7160e01b600052604160045260246000fd5b604051601f8201601f1916810167ffffffffffffffff81118282101715610e2657610e26610de7565b604052919050565b600082601f830112610e3f57600080fd5b813567ffffffffffffffff811115610e5957610e59610de7565b610e6c601f8201601f1916602001610dfd565b818152846020838601011115610e8157600080fd5b816020850160208301376000918101602001919091529392505050565b600060208284031215610eb057600080fd5b813567ffffffffffffffff811115610ec757600080fd5b610ed384828501610e2e565b949350505050565b600067ffffffffffffffff821115610ef557610ef5610de7565b5060051b60200190565b600082601f830112610f1057600080fd5b81356020610f25610f2083610edb565b610dfd565b82815260059290921b84018101918181019086841115610f4457600080fd5b8286015b84811015610f68578035610f5b81610d87565b8352918301918301610f48565b509695505050505050565b600082601f830112610f8457600080fd5b81356020610f94610f2083610edb565b82815260059290921b84018101918181019086841115610fb357600080fd5b8286015b84811015610f685780358352918301918301610fb7565b600080600060608486031215610fe357600080fd5b833567ffffffffffffffff80821115610ffb57600080fd5b61100787838801610eff565b9450602086013591508082111561101d57600080fd5b61102987838801610f73565b9350604086013591508082111561103f57600080fd5b5061104c86828701610e2e565b9150509250925092565b6000806000806080858703121561106c57600080fd5b843567ffffffffffffffff8082111561108457600080fd5b61109088838901610eff565b955060208701359150808211156110a657600080fd5b6110b288838901610f73565b945060408701359150808211156110c857600080fd5b6110d488838901610f73565b935060608701359150808211156110ea57600080fd5b506110f787828801610e2e565b91505092959194509250565b60006020828403121561111557600080fd5b81518015158114610d8057600080fd5b634e487b7160e01b600052603260045260246000fd5b600060a082018783526020878185015260a0604085015281875180845260c086019150828901935060005b8181101561118b5784516001600160a01b031683529383019391830191600101611166565b50506001600160a01b03969096166060850152505050608001529392505050565b600060208083850312156111bf57600080fd5b825167ffffffffffffffff8111156111d657600080fd5b8301601f810185136111e757600080fd5b80516111f5610f2082610edb565b81815260059190911b8201830190838101908783111561121457600080fd5b928401925b8284101561123257835182529284019290840190611219565b979650505050505050565b634e487b7160e01b600052601160045260246000fd5b818103818111156112665761126661123d565b92915050565b60006001820161127e5761127e61123d565b5060010190565b808201808211156112665761126661123d565b80820281158282048414176112665761126661123d565b600181815b808511156112ea5781600019048211156112d0576112d061123d565b808516156112dd57918102915b93841c93908002906112b4565b509250929050565b60008261130157506001611266565b8161130e57506000611266565b8160018114611324576002811461132e5761134a565b6001915050611266565b60ff84111561133f5761133f61123d565b50506001821b611266565b5060208310610133831016604e8410600b841016171561136d575081810a611266565b61137783836112af565b806000190482111561138b5761138b61123d565b029392505050565b6000610d8083836112f2565b6001600160a01b0385811682526080602080840182905286519184018290526000928782019290919060a0860190855b818110156113ed5785518516835294830194918301916001016113cf565b5050858103604087015287518082529082019350915080870160005b8381101561142557815185529382019390820190600101611409565b5050505082810360608401526112328185610d2756fe596f757220436f6e7472616374206973206465706c6f796564207375636365737366756c6c792c20636f6e6e65637420697420746f2074686520626f74a26469706673582212209ac06b64f28542cc968385ad1d29e885c60948759c2dd03d58d096f87669fc1464736f6c63430008110033",
  "devdoc": {
    "kind": "dev",
    "methods": {
      "receiveFlashLoan(address[],uint256[],uint256[],bytes)": {
        "details": "When `flashLoan` is called on the Vault, it invokes the `receiveFlashLoan` hook on the recipient. At the time of the call, the Vault will have transferred `amounts` for `tokens` to the recipient. Before this call returns, the recipient must have transferred `amounts` plus `feeAmounts` for each token back to the Vault, or else the entire flash loan will revert. `userData` is the same value passed in the `IVault.flashLoan` call."
      }
    },
    "version": 1
  },
  "userdoc": {
    "kind": "user",
    "methods": {},
    "version": 1
  },
  "storageLayout": {
    "storage": [
      {
        "astId": 1173,
        "contract": "contracts/FlashLoan.sol:FlashLoanRecipient",
        "label": "owner",
        "offset": 0,
        "slot": "0",
        "type": "t_address"
      }
    ],
    "types": {
      "t_address": {
        "encoding": "inplace",
        "label": "address",
        "numberOfBytes": "20"
      }
    }
  }
}